:020000040800F2
:10000000C805002001010008090100080B010008D3
:100010000D0100080F010008110100080000000098
:1000200000000000000000000000000013010008B4
:10003000150100080000000017010008A91F0008B2
:100040001B0100081B0100081B0100081B01000820
:100050001B0100081B0100081B0100081B01000810
:100060001B0100081B0100081B0100081B01000800
:100070001B0100081B0100081B0100081B010008F0
:100080001B0100081B010008710500081B01000886
:100090001B0100081B0100081B0100081B010008D0
:1000A0001B0100081B0100081B0100081B010008C0
:1000B000212000081B0100081B0100081B0100088B
:1000C0001B0100081B0100081B0100081B010008A0
:1000D0001B0100081B0100081B0100081B01000890
:1000E0001B0100081B0100081B010008DFF80CD0F1
:1000F00000F02CFA0048004781240008C8050020C1
:100100000648804706480047FEE7FEE7FEE7FEE7B1
:10011000FEE7FEE7FEE7FEE7FEE7FEE71D2000083C
:10012000ED000008202A04DB203A21FA02F0002129
:10013000704721FA02F3D040C2F1200291400843F7
:1001400019467047D2B201E000F8012B491EFBD2DC
:1001500070470022F6E710B513460A4604461946D2
:10016000FFF7F0FF204610BD421C10F8011B0029CC
:10017000FBD1801A70472DE9FE4F804681EA0300CB
:10018000C00F0C46009021F0004123F00045B8EB71
:100190000200A94105D24046214690461C460B4626
:1001A000024623F00040104347D0270DC7F30A0052
:1001B000C3F30A510290401A019040286BDAC3F34E
:1001C000130040F4801B0098924620B10023D2EB2C
:1001D000030A63EB0B0B01985946C0F140025046ED
:1001E00000F035F906460D4650465946019A00F092
:1001F0003DF910EB08006141002487EA115284EABE
:10020000E7731A4340D0009A62B3019A012A4FEA79
:10021000075215DC001B61EB02014FF0004202EABD
:100220000752CDE90042001C41F5801132462B46B1
:1002300000F03DF903B0BDE8F08F40462146F9E7F4
:10024000001B61EB0201001C41F5801300185B41AB
:100250002018A2F5001747EB030140EAD570B61944
:100260006D4111E06D084FEA360645EAC0754FEA68
:100270000752001B61EB0201001C41F58011490887
:100280004FEA30000019514132462B4603B0BDE819
:10029000F04F00F0FDB80098012240000023D0EBA1
:1002A000020263EBE073009821464FEAE074B8EB7A
:1002B000000061EB0401E9E783F000435BE781F0B4
:1002C000004158E72DE9FE4F81EA030404F00044A1
:1002D00021F0004100944FF0000B23F0004350EA5E
:1002E00001045ED052EA03045BD0C3F30A54C1F3A5
:1002F0000A552C44A4F2F3340194A0FB0254C1F338
:10030000130141F48011C3F3130343F4801301FB81
:10031000024400FB034E840A970A44EA815447EAE8
:100320008357A4FB076802958D0A05FB07854FEAF2
:10033000932C04FB0C542705029D4FEA065847EA0C
:100340001637B5EB08056EEB070C870E920E47EAE1
:10035000811742EA8312A7FB0201B6EB0B0164EBA3
:1003600000042B0D43EA0C335E1844EB1C50DA46B4
:100370005146E7FB0201C5F313044FEA0B3343EA8E
:1003800014534FEA0432019C43EA0603A4F10C041F
:100390000294009CCDE900B400F089F803B0BDE8F8
:1003A000F08F00200146F9E70EB5C10F80EAE0703A
:1003B0000844CA07002140F233438DE80E000A4684
:1003C0000B4600F074F803B000BD0EB540F23341A7
:1003D00002910021CDE900110A460B4600F067F8B2
:1003E00003B000BD70B5C1F30A5201F0004500240E
:1003F000C1F3130140F2FF3341F480119A4201DA54
:10040000002070BD40F233439A42A2F2334203DC33
:100410005242FFF787FE00E090402C43F1D040426B
:1004200070BD30B50B46014600202022012409E0B2
:1004300021FA02F59D4205D303FA02F5491B04FA9D
:1004400002F52844151EA2F10102F1DC30BD202A7C
:1004500004DB203A00FA02F1002070479140C2F11B
:10046000200320FA03F3194390407047202A06DB4B
:10047000CB17203A41FA02F043EAE07306E041FA72
:1004800002F3D040C2F12002914008431946704760
:1004900010B5141E73F1000408DA401C41F100018C
:1004A00092185B411A4301D120F0010010BD2DE9E3
:1004B000F04D92469B4611B1B1FA81F202E0B0FADA
:1004C00080F220329046FFF7C2FF04460F4640EA12
:1004D0000A0041EA0B0153465A46084313D011461D
:1004E00053EA010019D0C8F140025046FFF71AFE46
:1004F00005460E46504659464246FFF7A8FF0843B8
:1005000005D0012004E020463946BDE8F08D0020EA
:10051000054346EAE0762C4337430A986305E40A2C
:10052000A0EB08000022FD0A44EA47540A3002D535
:1005300000200146E9E7010510196941DDE9084598
:1005400000196941BDE8F04DA2E70000064C074DD7
:1005500006E0E06840F0010394E807009847103493
:10056000AC42F6D3FFF7C6FDC0260008E02600081F
:10057000014800F02CB900002000002070B50446AE
:1005800000688168C943C90717D1816821F001015A
:10059000816000F0C9FB05460AE000BF00F0C4FB23
:1005A000401B022804D920688068C043C00706D0D9
:1005B00020688068C043C007F0D0002070BDA06AEA
:1005C00040F01000A062E06A40F00100E06201200B
:1005D00070BD0000F8B500260446009600688168EA
:1005E000C943C9072DD0816841F0010181601648D7
:1005F00016490068B0FBF1F000E0401E00900028B2
:10060000FBD100F091FB054616E000BF00F08CFB2B
:10061000401B022810D920688068C043C0070BD057
:10062000A06A40F01000A062E06A40F00100E062C1
:1006300084F824600120F8BD20688068C043C007AA
:10064000E4D10020F8BD00001C00002040420F0053
:100650002DE9F04100240646084D27460AE00848E7
:1006600001F000F92868C007FCD02F60044801F0B1
:100670004DF9641CB442F2DBBDE8F081102C01405E
:10068000E8000020064D4FF400544FF4FA7621465E
:10069000284600F03BFB304600F036FAF7E7000052
:1006A0000010014070470000F8B50024009490F855
:1006B00024202546012A12D0012280F824204A68ED
:1006C0001F23072A0DD20668776B521E02EB8202A7
:1006D00093409F430B6893401F43776319E00220C8
:1006E000F8BD06680D2A0AD2376BD21F02EB8202D0
:1006F00093409F430B6893401F43376309E0F76AB9
:100700000D3A02EB820293409F430B6893401F43D4
:10071000F7620A68072306680A2A0AD3F7680A3AC2
:1007200002EB420293409F438B6893401F43F76064
:1007300008E0376902EB420293409F438B68934085
:100740001F4337610A68102A01D0112A20D1124BA9
:1007500002689A4217D193681B0219D4936843F434
:10076000000393600968102912D10C490C4A0968EA
:10077000B1FBF2F101EB8101490000E0491E00915B
:100780000029FBD104E0816A41F02001816201244B
:1007900080F824502046F8BD002401401C000020B1
:1007A00040420F0010B500680449884204D1044853
:1007B00000F00AF80349088010BD00000024014041
:1007C00020000020000000200068C06C704710B5B9
:1007D000044600684168890626D50168890723D543
:1007E000A16AC90603D4A16A41F40071A1628168BB
:1007F000C1F34241072910D1217B71B9416821F031
:1008000020014160A06A20F48070A062A06AC00448
:1008100003D4A06A40F00100A0622046FFF7C2FFA7
:1008200021686FF0120008602068416809062ED523
:10083000016849072BD5A16AC90603D4A16A41F40E
:100840000051A1628168C1F30231072909D04168D2
:10085000490515D48168C1F34241072910D1217B94
:1008600071B9416821F080014160A06A20F4805094
:10087000A062A06AC00503D4A06A40F00100A06293
:100880002046FFF70FFF21686FF00C00086020681A
:10089000416849060DD50068C0070AD0A06A40F437
:1008A0008030A062204600F093F821686FF00100CC
:1008B000086010BD2DE9F0414FF0000704003D46EF
:1008C0007ED0A06A002628B9E66284F8246020461B
:1008D00000F080F82046FFF751FEA16AC90600D457
:1008E00020B1A06A40F01000A06269E0A16A21F482
:1008F000885141F00201A1626268E169237B0A43E9
:1009000047EA43010A43A1684FF48077B94209D00E
:10091000012907D05FF0000194F814C0BCF1010F69
:1009200002D00AE03946F7E7F3B1A36A43F02003A7
:10093000A362E36A43F00103E3622368D3F804C0CF
:100940002CF4694C4CEA010CC3F804C021688B6894
:10095000DFF870C003EA0C0313438B60A168B9424F
:100960000BD0012909D00CE0DFF85CC0A3690CEBC7
:1009700043330B4343F40061DFE7218A0D05A5F5FE
:1009800080152168CB6A23F470032B43CB62216866
:1009900089680E4B1940914208D1E662A16A21F0A4
:1009A000020141F00101A162BDE8F081A06A20F0DE
:1009B000020040F01000A062E06A40F00100E06236
:1009C0000120F1E7FDF7E1FF00E0FFFFFE0E1FFF52
:1009D0007047000000B585B000210091019102919F
:1009E000039100681249884220D11248816941F47C
:1009F00000718161816901F400710491816941F0A4
:100A0000040181618069694600F0040004900120BE
:100A1000009003200190084800F088F8122000F0B0
:100A200083FB00220121122000F08CFB05B000BDE9
:100A300000240140001002400008014070B5044647
:100A400090F8240001280DD0012084F824002046CD
:100A5000FFF7C0FD02004FF0000005D084F824002D
:100A6000104670BD022070BDA16A40F60163994333
:100A700041F48071A162224D23682249AB4218D112
:100A80000E6816F4702F14D0A66A46F48016A6627B
:100A90000E68760505D5A66A26F4005646F48056FB
:100AA000A662A66AF6040AD5E66A26F00606E6629B
:100AB00006E0A66A26F48016A6625E68E9E7E062B0
:100AC00084F824006FF0020018602068436843F047
:100AD0002003436020688368C3F34243072B05D19A
:100AE000A84208D1096811F4702F04D0816841F43C
:100AF00080118160B4E7816841F4A001F9E700004A
:100B0000002801400424014070B5044600F00CF9AF
:100B10000546601C02D004480078044400F004F943
:100B2000401BA042FAD370BD100000202DE9F84F01
:100B3000DFF8B891002409F1040A0AF1040B2346F6
:100B40000F270BF1040EC9E00125A5402A40AA4257
:100B50007DD1674ED1F804C0ACEB0608B44532D065
:100B600014DCBCF1030F3AD009DCBCF1000F2AD031
:100B7000BCF1010F1CD0BCF1020F31D11DE0BCF162
:100B8000110F17D0BCF1120F2AD119E0B8F5881F48
:100B900019D006DCB8F5803F15D0B8F5801F1FD1FD
:100BA00011E0B8F5001F0ED0B8F5041F18D10AE007
:100BB000CB6815E0CB681B1D12E0CB6808330FE053
:100BC000CB680C330CE08B682BB1012B4FF0080382
:100BD00003D0456104E0042302E0056100E0002346
:100BE000FF2A01D8064601E000F104064FEA840519
:100BF00001D9A5F12005D6F8008007FA05FC28EAFE
:100C00000C0803FA05F548EA0508C6F800804D68A7
:100C1000ED0062D5374DAE6946F00106AE61AD69B3
:100C200024F0030605F001050095334D06EB050C95
:100C3000DCF80850A607360F07FA06F825EA08057B
:100C4000DFF8B880404503D14FF0000817E044E0DA
:100C5000DFF8AC80404502D14FF001080FE0DFF82B
:100C6000A480404502D14FF0020808E0DFF89880E8
:100C7000404502D14FF0030801E04FF0040808FAA4
:100C800006F848EA0508CCF808804D68D9F80060F5
:100C9000ED034D4601D5164300E096432E604D68A6
:100CA000DAF80060AD03554601D5164300E09643DF
:100CB0002E604D68DBF80060ED025D4601D51643FD
:100CC00000E096432E604D68DEF80060AD02754688
:100CD00001D5164300E096432E60641C0D682A4639
:100CE000E5407FF431AFBDE8F88F0000000401401B
:100CF00000001110001002400000014000080140F7
:100D0000000C01400010014000140140C26821EABB
:100D100002030A4043EA0241016170470AB10161DE
:100D200070470904FBE70000014880687047000035
:100D30001000002070B5040025D094F83D00002577
:100D400020B984F83C50204600F04EF9242084F865
:100D50003D002068016821F0010101602068016800
:100D600041F4004101602068016821F40041016004
:100D700000F026FB4D4A6168914201D84C4900E0E1
:100D80004C49884201D2012070BD4B492368B0FB19
:100D9000F1F15E6826F03F060E435E6063689342A1
:100DA00006D94FF4967359434FF47A73B1FBF3F1BC
:100DB0002368491C1E6A26F03F06314319626168A8
:100DC000914210D84900401EB0FBF1F2521CC2F310
:100DD0000B02042A01D2042022E0B0FBF1F0401CF7
:100DE000C0F30B001CE0A268F2B301EBC10303EBFC
:100DF0000116431EB3FBF6F35B1C43F480431B0553
:100E000049D092B301EBC10202EB0111401EB0FBCD
:100E1000F1F0401CC0F30B0040F4804040F400406F
:100E20002168CA694CF6FF739A431043C861D4E93C
:100E3000071001432068026822F0C00211430160DC
:100E4000D4E9030101432068826848F2FF339A43E2
:100E500011438160D4E9050108432168CA6822F082
:100E6000FF021043C86001E00EE016E02068016850
:100E700041F0010101602564202084F83D002563D4
:100E800084F83E50002070BD01EB4106431EB3FBC9
:100E9000F6F35B1CB3E70120C2E701EB4101401E02
:100EA000B0FBF1F0401CC0F30B00B7E7A0860100D7
:100EB00080841E0000093D0040420F002DE9F84FDC
:100EC0001F4690468A460446DDF82890FFF72CFF1F
:100ED000054694F83D0020287FD11923012240497E
:100EE0002046009500F034FF002876D194F83C00AD
:100EF000012872D0012084F83C0020680168C907ED
:100F000003D1016841F0010101602068016821F40A
:100F100000610160212084F83D00102084F83E002B
:100F200000262664C4F824806785608D20852D48BE
:100F3000E0622B464A465146204600F095FE90B9A5
:100F4000206841698069009036E02A46494620467B
:100F500000F07DFF50B1206C042804D120680168A6
:100F600041F4007101600120BDE8F88F606A2168DA
:100F700000780861606A401C6062618D491E61856D
:100F8000218D491E89B2218522685369DB435B07A5
:100F90000BD451B100781061606A401C6062608DB2
:100FA000401E6085208D401E20852A4649462046E9
:100FB00000F0A8FE0028CED1208D0028C5D154F81D
:100FC0003D0B016841F400710160202004F81E0906
:100FD000E67766770020C7E7FFE70220C4E7000056
:100FE000020010000000FFFF10B586B00021009144
:100FF00001910291039100680F4988421AD10F4C68
:10100000A06940F00800A061A069694600F00800EE
:101010000490C02000901220019003200390084803
:10102000FFF784FDE06940F40010E061E06900F43E
:101030000010049006B010BD0054004000100240A3
:10104000000C0140024881680278114481607047B9
:1010500010000020074810B5016841F01001016040
:10106000032000F08FF8002000F006F800F024F8CC
:10107000002010BD0020024070B50D4D04464FF415
:101080007A712878B1FBF0F00A490968B1FBF0F0F9
:1010900000F07CFB48B9102C07D200222146501EDC
:1010A00000F050F800206C6070BD012070BD0000A1
:1010B000100000201C000020184808B5016841F409
:1010C000E0210160002211466FF00B0000F03AF8B9
:1010D000002211466FF00A0000F034F80022114699
:1010E0006FF0090000F02EF80D48816941F0010110
:1010F0008161816901F001010091C16941F0805174
:10110000C161C06900F0805000900648416821F03C
:10111000E06141F00071416008BD000024ED00E095
:101120000010024000000140002809DB00F01F020F
:10113000012191404009800000F1E020C0F8001139
:1011400070470000F0B40E4B1B680C46C3F302233B
:10115000C3F10705042D00D90425191D072901D263
:10116000002300E0DB1E012606FA05F1491E21409E
:1011700099409E40761E16403143F0BC01F02EB8D7
:101180000CED00E0064900F0070208684FF6FF0387
:10119000184040EA0220034A1043086070470000EC
:1011A0000CED00E00000FA052DE9F8430546007853
:1011B000354CC00754D0E0690026C00008D4E0696F
:1011C00040F08050E061E069012600F0805000901E
:1011D0002E480168C90512D40168804641F4807127
:1011E0000160FFF7A1FD074605E000BFFFF79CFD8A
:1011F000C01B642823D8D8F80000C005F6D5206AA3
:1012000010F4407021D0A98801F4407181421CD0B3
:10121000206A1F49012220F440700A6000220A60FF
:101220002062C00711D0FFF77FFD074641F28838E2
:1012300008E000BFFFF778FDC11B414502D903203C
:10124000BDE8F883206A8007F4D5206A696820F435
:101250004070084320621EB1E06920F08050E061D8
:101260002878800705D56068A96820F440400843C5
:1012700060602878C00605D56068E96820F48000C1
:10128000084360600020DBE700100240007000406F
:10129000400442422DE9F0470F46050061D0434E1D
:1012A000306800F00700B84209D2306820F007002B
:1012B00038433060306800F00700B84251D12868E8
:1012C0003B4C810712D5400703D5606840F4E060CD
:1012D00060602878000703D5606840F46050606063
:1012E0006068A96820F0F000084360602878C007B3
:1012F00028D06868012810D02168022810D08907FA
:1013000000292EDA616821F0030101436160FFF7D3
:101310000BFD804641F288390DE021688903EFE733
:101320008901EDE7FFF700FDA0EB0801494502D96F
:101330000320BDE8F0876068696800F00C00B0EB3E
:10134000810FEFD1306800F00700B8420BD9306848
:1013500020F0070038433060306800F00700B842E2
:1013600001D00120E5E72878400705D56068E968E5
:1013700020F4E060084360602878000706D56068C4
:10138000296920F4605040EAC100606000F038F83C
:101390006168084AC1F30311515CC84006490860FE
:1013A00006480068FFF768FE0020C2E70020024000
:1013B00000100240A82600081C0000201400002095
:1013C0000448054900684968044AC1F30221515C98
:1013D000C84070471C00002000100240B8260008DA
:1013E0000448054900684968044AC1F3C221515CB8
:1013F000C84070471C00002000100240B8260008BA
:1014000012A185B00FC98DE80F0014A0144A00681E
:1014100004905168134801F00C03042B10D0082BE2
:101420000ED1C1F38343C9031DF803000AD55168E7
:1014300004AAC1F34041515C0A4A5043B0FBF1F0A9
:1014400005B0704708494843FAE700000203040565
:10145000060708090A0B0C0D0E0F10100102000000
:101460000010024000127A0000093D002DE9F84FFB
:10147000040070D02078C04DC00749D06868C0F320
:101480008100012807D06868C0F38100022809D1D3
:101490006868C00306D52868800339D560680028CD
:1014A000E7D035E06068B0F5803F0BD010B1B0F503
:1014B000A02F11D0286820F480302860286820F4FC
:1014C000802002E0286840F480302860606890B195
:1014D000FFF72AFC06460AE0286840F480202860CE
:1014E000F0E700BFFFF720FC801B642873D8286852
:1014F0008003F7D50CE0FFF717FC064605E000BFB8
:10150000FFF712FC801B6428F0D828688003F7D40A
:1015100020789A4E80074FF001094FF0000839D526
:10152000686810F00C0F07D06868C0F381000228CB
:1015300009D16868C00306D42868800714D52069DB
:10154000012808D110E02069B0B1C6F80090FFF77B
:10155000EBFB074605E00AE1FFF7E6FBC01B0228AC
:10156000C4D828688007F7D52868616920F0F8009A
:1015700040EAC10028600DE0C6F80080FFF7D4FB08
:10158000074604E0FFF7D0FBC01B022823D82868D9
:101590008007F7D4207800072CD57948A169D9B104
:1015A000C0F80090FFF7C0FB074604E0FFF7BCFB64
:1015B000C01B02280FD8686A8007F7D571484FF41E
:1015C000FA510068B0FBF1F0009000BF0098411E96
:1015D0000091FAD20EE080E0C0F80080FFF7A4FB93
:1015E000074604E0FFF7A0FBC01B022875D8686A15
:1015F0008007F7D42078400760D5E8690027C0004D
:1016000008D4E86940F08050E861E869012700F0FB
:10161000805000905C480168C90513D40168834676
:1016200041F480710160FFF77FFB824606E000BF56
:10163000FFF77AFBA0EB0A0064284ED8DBF8000025
:10164000C005F5D5E06801280AD008B1052813D0F7
:10165000286A20F001002862286A20F0040002E0D5
:10166000286A40F001002862E06841F2883B98B1A6
:10167000FFF75AFB82460BE0286A40F0040028621C
:10168000EEE700BFFFF750FBA0EB0A0159455AD81F
:10169000286A8007F6D50CE0FFF746FB824605E096
:1016A000FFF742FBA0EB0A0159454CD8286A800796
:1016B000F6D41FB1E86920F08050E861E06988B392
:1016C0006968C1F38101022944D00228C6F860800C
:1016D00004D0FFF729FB044638E034E0FFF724FB91
:1016E000074604E0FFF720FBC01B02282BD8286820
:1016F0008001F7D4206AB0F5803F05D16868A16801
:1017000020F4003008436860D4E9080108436968A0
:1017100021F4741108436860C6F86090FFF704FB79
:10172000044606E025E000BFFFF7FEFA001B022892
:1017300009D828688001F7D51BE000BFFFF7F4FA4D
:10174000001B022802D90320BDE8F88F2868800119
:10175000F4D40EE00128F7D06868226A00F48031E2
:10176000914204D1616A00F47010884201D00120D6
:10177000EAE70020E8E700000010024000004242D3
:10178000800442421C0000200070004010B5401E42
:10179000B0F1807F01D3012010BD4FF0E0246061E3
:1017A0000F21601700F01AFD0020A06107202061C2
:1017B000002010BD7047704710B5040003D094F8A6
:1017C0003D0010B107E0012010BD002084F83C006E
:1017D000204600F01FF8022084F83D00211D2068FB
:1017E00000F024FC012084F8460084F83E0084F8D0
:1017F0003F0084F8400084F8410084F8420084F8F7
:10180000430084F8440084F8450084F83D0000203B
:1018100010BD000008B5114A01681148914208D175
:10182000816941F400618161806900F40060009089
:1018300008BDB1F1804FFBD1C16941F00101C16127
:10184000C06900F0010000901C20FFF76DFC002231
:101850000521BDE808401C20FFF774BC002C0140A6
:101860000010024090F83D10012901D0012070477E
:10187000022180F83D1000680B49884208D0B0F181
:10188000804F05D00949884202D00949884204D1D5
:10189000816801F00701062903D0016841F00101C8
:1018A0000160002070470000002C0140000400404F
:1018B0000008004090F83D10012901D00120704738
:1018C000022180F83D100168CA6842F00102CA6036
:1018D00000680B49884208D0B0F1804F05D0094913
:1018E000884202D00849884204D1816801F007018A
:1018F000062903D0016841F0010101600020704712
:10190000002C0140000400400008004001680A6A01
:1019100041F211131A4207D10A6A9B101A4203D1ED
:101920000A6822F001020A60012180F83D100020BF
:101930007047704770B50446006801694FF00005B4
:10194000C943890715D4C168C943890711D4E91E61
:10195000016101202077206880698007204602D03D
:10196000FFF7E7FF04E000F098F8204600F096F853
:10197000257720680169C943490717D4C168C9435D
:10198000490713D46FF00401016102202077206819
:10199000806910F4407F204602D0FFF7CAFF04E0C0
:1019A00000F07BF8204600F079F82577206801697F
:1019B000C943090716D4C168C943090712D46FF097
:1019C00008010161042020772068C0698007204653
:1019D00002D0FFF7AEFF04E000F05FF8204600F011
:1019E0005DF8257720680169C943C90617D4C16825
:1019F000C943C90613D46FF0100101610820207794
:101A00002068C06910F4407F204602D0FFF791FFA4
:101A100004E000F042F8204600F040F82577206806
:101A20000169C943C90708D1C168C943C90704D1BD
:101A3000891E0161204600F033F820680169C9431E
:101A4000090609D4C168C943090605D46FF08001AD
:101A500001612046FFF7AEFE20680169C9434906CF
:101A600009D4C168C943490605D46FF0400101613A
:101A7000204600F01FF820680169C94389060BD48D
:101A8000C168C943890607D46FF02001016120466F
:101A9000BDE87040FFF78FBE70BD70477047000013
:101AA0000068B0F1804F02D10149012048607047C1
:101AB00000000020704770B5040004D094F83D0089
:101AC000002510B106E0012070BD84F83C5020468E
:101AD00000F022F8242084F83D002068C16821F439
:101AE0000051C160204600F0D7FA2068016921F456
:101AF000904101612068416921F02A01416120681B
:101B0000C16841F40051C1602564202084F83D0083
:101B100084F83E00002070BD30B585B000240094EC
:101B200001940294039400681449884223D1144814
:101B3000C16941F40031C161C16901F4003104910E
:101B4000816941F00401816180690E4D00F004005B
:101B50000490042000900220019003200390694625
:101B60002846FEF7E3FF0820CDE900046946284631
:101B70000294FEF7DBFF05B030BD000000440040DA
:101B800000100240000801402DE9F843044690F897
:101B90003D001F4616460D4620284CD1C5B1BEB1AA
:101BA00094F83C00012846D0012084F83C004FF016
:101BB0000008C4F84080212084F83D00FFF7B4F805
:101BC000A6848146E684A068B0F5805F03D004E077
:101BD0000120BDE8F883206928B12E465FF000059A
:101BE00084F83C800EE00026FAE78021204600F0D1
:101BF000AFFAA0B9AEB116F8010B21684860E08CCD
:101C0000401EE084E08C4B464FF000020097002815
:101C1000EBD14FF04001204600F09AFA30B103209A
:101C2000D7E735F8020BC0F30800E6E7202084F878
:101C30003D000020CDE70220CBE701684A69D2438E
:101C400052050FD46FF480624A61002140F8301FC2
:101C5000202242738173026942F00402026101731F
:101C60000120704700207047F8B50446C06A1E4640
:101C70000D461746082807D0012805D010F5803FEB
:101C800002D0206B122804D12068016841F48071D1
:101C90000160134600224FF001112046009600F02B
:101CA00057F840B120680068C00502D54FF40070B5
:101CB00020640320F8BD2069B0F5804F0ED00620C7
:101CC000216800EAD51040F0F000086133463A463A
:101CD0000B49204600F070F878B902E005F0FE00EC
:101CE00000E0E8B221680861054933463A46891F99
:101CF000204600F061F80028DCD00120F8BD00008B
:101D00000800010070B516460D4604460DE0204659
:101D1000FFF793FF08B1012070BD681C05D0FFF7E5
:101D200003F8801BA84207D835B120684069C0433A
:101D30004007ECD4002070BD002044F8300F202173
:101D40006173A073216941F0200121612073E2E7F2
:101D50002DE9F0471E4690460D460446C1F307475D
:101D6000DDF8209008E0701C06D0FEF7DDFFA0EB48
:101D70000900B0420FD876B12068012F18D08069D1
:101D800025EA00000004000C14D000214145EAD0EF
:101D90000020BDE8F087002044F8300F2021617357
:101DA000A073216941F02001216120730120F0E737
:101DB0004069E5E70121E9E72DE9F0479A469146B8
:101DC0000E46044600254FF02008C1F3074725E0E2
:101DD00020684069C043400514D42068016841F47C
:101DE0000071016021686FF480604861256384F8A8
:101DF0003D8084F83E50206C40F00400206484F85C
:101E00003C501FE0B9F1FF3F08D0FEF78DFFA0EB7B
:101E10000A0149450CD8B9F1000F09D02068012FFB
:101E200013D0806926EA00000004000C0BD0CFE735
:101E300044F8305F84F80D80A573206940F02000DD
:101E4000206125730120BDE8F0874069EAE770B59D
:101E500016460D4604460DE02046FFF7EEFE08B19B
:101E6000012070BD681C05D0FEF75EFF801BA842F4
:101E700007D835B120684069C0430006ECD4002083
:101E800070BD002044F8300F20216173A0732169D8
:101E900041F0200121612073E2E700003EB50024FB
:101EA0000F480094019402940C498460016004730B
:101EB0000475012505614FF460214460C161FEF79E
:101EC000F9FC40B9CDE90045694605480294FEF7A2
:101ED000EBFB002801D0FEF7D5FB3EBD00240140FE
:101EE0002000002038B51E48816941F02001816141
:101EF000816901F020010091816941F00401816153
:101F0000816901F004010091816941F0080181615A
:101F1000816901F008010091816941F0100181613E
:101F200080694FF4005400F0100000900D4801212A
:101F30000D4DC0E90041002181600221C1600146D0
:101F40002846FEF7F3FD012221462846FEF7E6FE6D
:101F500021462846BDE838400022FEF7DFBE0000DB
:101F60000010024078010020001001400C4810B51C
:101F70000A4901600B49416000214FF480428160B1
:101F8000C0E9031241618161C1610162FEF7D2FEC5
:101F9000002801D0FEF776FB10BD00000054004081
:101FA00050000020A0860100FFF74CB830B593B078
:101FB00028216846FEF7CDF814210AA8FEF7C9F8D3
:101FC0000024012108040F94109412940491CDE987
:101FD0000010CDE908041194029402250795684683
:101FE000FFF744FA98B90F200A90CDE90B540D94ED
:101FF00000210AA80E94FFF74DF940B90648046085
:102000000FA80F951194FFF7CFF8002801D0FEF725
:1020100039FB13B030BD00000000424270470000A1
:102020000148FFF787BC000030010020F0B50268CE
:10203000164B174C174D4FF08047984205D0B842C9
:1020400003D0A04201D0A84203D122F070064A6812
:102050003243984205D0B84203D0A04201D0A842F2
:1020600003D122F44074CA6822434C6922F08002F2
:10207000224302608A68C2620A688262984201D181
:102080000969016301214161F0BD0000002C01409C
:10209000000400400008004070B504460068016973
:1020A000E26821F44051114301612169A0680843AD
:1020B000616908432168CA6841F20C639A4302438C
:1020C000CA6020684169A26921F4407111434161ED
:1020D0001E492068884202D1FFF782F901E0FFF72C
:1020E0006FF900EBC00101EB001260686421800011
:1020F000B2FBF0F3B3FBF1F36FF018067343B2FBDE
:10210000F0F5B2FBF0F605EB8305322303EB051582
:10211000B5FBF1F5B6FBF1F605F0F00505EB06159C
:10212000B2FBF0F6B2FBF0F0B0FBF1F06FF018028A
:10213000504306EB800003EB0010B0FBF1F0216888
:1021400000F00F002844886070BD00000038014096
:102150002DE9F041984617460E460446069D1DE0BF
:10216000681C1BD02DB1FEF7DFFDA0EB0800A842D4
:1021700014D92068C16821F4D071C1602068416918
:1021800021F001014161202084F83D0084F83E00E7
:10219000002084F83C000320BDE8F081206800683E
:1021A00036EA000004D00020B842D9D00020F3E77E
:1021B0000120F9E70FB4084B10B504A902AA03984F
:1021C00000F02CF8044602A9002000F0D1F82046C7
:1021D00010BC5DF814FB0000712300080907090E0C
:1021E000002804DB00F1E02080F80014704700F0C4
:1021F0000F0000F1E02080F8141D704702E008C8CD
:10220000121F08C1002AFAD170477047002001E070
:1022100001C1121F002AFBD1704700002DE9FF4FBA
:1022200089B09B460446002506E025280BD05A4677
:102230000B999047641C6D1C20780028F5D10DB0D7
:102240002846BDE8F08F0027B8460122474900E044
:10225000074314F8013F203B02FA03F00842F7D18C
:1022600020782E2819D114F8010F47F004072A28E6
:102270000ED06FF02F022078A0F1300109290CD880
:1022800008EB880102EB410100EB0108641CF2E756
:102290000A98641C50F8048B0A9020780028CED04D
:1022A000642808D0692806D075281ED05A460B9994
:1022B00090476D1C58E00A994FF00A0901C90A912C
:1022C000002802DA40422D2102E0390504D52B21F5
:1022D0008DF82010012103E0F90704D02021F7E751
:1022E0008A4608AE0DE00021FAE70A994FF00A0984
:1022F00001C90A91F7E74946FEF793F8303106F82D
:10230000011D0028F7D1ADEB060000F12009780788
:1023100001D44FF00108C84502DDA8EB090000E038
:1023200000208046002706E008A85A46C05D0B99A9
:1023300090476D1C7F1C5745F6DB04E030205A4661
:102340000B9990476D1CB8F10001A8F10108F5DC6C
:1023500005E016F8010B5A460B9990476D1CB9F130
:102360000001A9F10109F4DC641C65E709280100FA
:102370000A68531C0B6010707047012805D040316B
:10238000C8B240F0800000F031B88031C8B2FAE73E
:1023900010B5332000F02AF8322000F027F8322060
:1023A000FEF7B2FB282000F021F83220FEF7ACFB4C
:1023B000012000F01BF83220FEF7A6FB062000F0FB
:1023C00015F83220FEF7A0FB0C2000F00FF83220A9
:1023D000FEF79AFB022000F009F83220FEF794FB8A
:1023E000BDE81040802000F001B800001CB500F0EE
:1023F000F00141F00C028DF8042041F008010001C9
:102400008DF8051040F00C018DF8061040F0080022
:102410008DF8070064200090042301AA4E21024891
:10242000FEF74CFD1CBD0000500000201CB500F064
:10243000F00141F00D028DF8042041F00901000186
:102440008DF8051040F00D018DF8061040F00900E0
:102450008DF8070064200090042301AA4E21024851
:10246000FEF72CFD1CBD00005000002010B50446F6
:1024700002E0641CFFF7DAFF20780028F9D110BDD4
:1024800008B5FEF7E7FDFFF791FDFFF72BFDFFF71E
:1024900005FDFFF76BFD6F486D4901600F2141603D
:1024A0000921C160FFF788F96A484FF08041483040
:1024B00001609F21416040F2E731C160FFF77CF984
:1024C0006448654944384FF0000801604FF41651E4
:1024D000C0E901180C22C0F80C80C0E90482C0F8E1
:1024E0001880C0F81C80FFF7E6FA08B1FEF7CAF8BA
:1024F000FFF74EFF57484830FFF7DCF9574C60684C
:102500000128FCD14503564E012229463046FEF7EC
:1025100005FC1C20FEF79CF84E48C838FEF78EFAE2
:102520000420FEF795F8002229463046FEF7F6FB18
:102530002088FDF74AFF4B4A4B4BFDF7C3FEFDF7E2
:1025400051FF80B26080FDF740FF484A484BFDF7DD
:10255000B9FEFDF747FFFDF727FF0022454BFDF7CA
:10256000ABFEFDF73FFFE060002801DAC4F80C8005
:10257000A0684146401CC4E901803228BFDBA1604D
:1025800000210120FFF7F9FE60880A25B0FBF5F174
:10259000B1FBF5F205FB12116426B0FBF6F2B2FBBB
:1025A000F5F305FB13234FF47A77B0FBF7F22948D4
:1025B000009131A1A030FFF7FDFD2648A030FFF7C4
:1025C00055FF00210220FFF7D8FEE06890FBF5F1EF
:1025D00091FBF5F205FB121190FBF6F292FBF5F37D
:1025E00005FB132390FBF7F21A48009127A1BE3098
:1025F000FFF7E0FD1748BE30FFF738FF1548A03061
:10260000FDF7B2FD134982B24FF0FF35A0312B46E2
:10261000A1F1E400FFF7B8FA0E482B46012221A1F0
:102620004438FFF7B1FA0B48BE30FDF79DFD09496C
:1026300082B2BE312B46A1F58170FFF7A5FA05489D
:102640002B46012217A14438FFF79EFA57E70000F6
:10265000002C0140E8000020004400400000002061
:102660000010014028F224E99AC9E93FC3F5285C2B
:102670008FC2C53F00005940566F6C743D25642ED3
:102680002564256428562920202020004475737471
:102690003D25642E25642564286D672F6D33292020
:1026A000202020000A0000000000000000000000C0
:1026B00001020304060708090000000001020304E8
:1026C000E02600080000002020000000FC21000897
:1026D0000027000820000020A80500000C220008A8
:1026E00000000000000000000000000000000000EA
:1026F0000100000010000000000000000024F400B1
:04000005080000ED02
:00000001FF
