:020000040800F2
:10000000D8060020DD010008151D00088D17000826
:10001000111D0008A1140008C521000800000000FF
:100020000000000000000000000000004D1E00085D
:10003000D514000800000000171D0008391F000833
:10004000F7010008F7010008F7010008F7010008B0
:10005000F7010008F7010008F7010008F7010008A0
:10006000F7010008F7010008F7010008F701000890
:10007000F7010008F7010008F7010008F701000880
:10008000F7010008F7010008F70100080000000070
:10009000000000000000000000000000F701000860
:1000A000F7010008F7010008F7010008F701000850
:1000B000F7010008F7010008F7010008F701000840
:1000C000F7010008F7010008F7010008F701000830
:1000D000F7010008F7010008F7010008F701000820
:1000E000F7010008F7010008F70100080000000010
:1000F0000000000000000000000000000000000000
:1001000000000000000000000000000000000000EF
:100110000000000000000000F7010008F7010008DF
:1001200000F002F800F04AF80AA090E8000C8244BF
:100130008344AAF10107DA4501D100F03FF8AFF29C
:10014000090EBAE80F0013F0010F18BFFB1A43F0B5
:1001500001031847182D0000382D0000103A24BF65
:1001600078C878C1FAD8520724BF30C830C144BF1C
:1001700004680C607047000000230024002500265E
:10018000103A28BF78C1FBD8520728BF30C148BFFA
:100190000B607047672902F01C86642900F0868096
:1001A000002070471FB500F045FB0400002000212F
:1001B00002F06CFAE0601FBD10B510BD00F036FC17
:1001C0001146FFF7EFFF02F0A5F900F054FC03B46D
:1001D000FFF7F2FF03BC00F097FC000009488047DE
:1001E00009480047FEE7FEE7FEE7FEE7FEE7FEE719
:1001F000FEE7FEE7FEE7FEE704480549054A064B31
:10020000704700003D1F000821010008D8000020B1
:10021000D8060020D8020020D80200200FB41CB558
:10022000074B06AA7B4469460090059800F0E9FA5E
:100230000020694600F0F8FA1CBC5DF814FB0000D1
:10024000010600002DE9F0410E4604460020206220
:100250002046E168884730B3252805D0D4E901213C
:100260009047206A401CF2E7E16820460027884753
:10027000050018D0A5F14100192802D820354FF407
:1002800000673246294620462760FFF783FF40B1CA
:10029000012804D0F61D26F007060836D8E7361DDB
:1002A000D6E72846DAE7206ABDE8F0812DE9F0417B
:1002B0000646002410687529314616A510D0AFF304
:1002C0000080002802DA404213A507E031688A075F
:1002D00001D512A502E0490704D511A5012401E0CA
:1002E000AFF3008000210A2206F1240709E0B0FBE9
:1002F000F2FCB0FBF2F302FB1C00303078541846DD
:10030000491C0028F3D123462A463046BDE8F04177
:1003100000F00BB8000000002D0000002B000000D2
:10032000200000007047704770472DE9F0470D46E8
:1003300099469246044600F124080168880604D5CF
:10034000E06921F01001216000E00120A84201DDF8
:10035000471B00E00027A1697A1902EB0900081A7F
:10036000A0612078C00602D42046AFF300800026AA
:1003700008E0D4E901211AF806009047206A401CE1
:10038000761C20624E45F4DB2078C0060AD5204654
:10039000AFF3008006E0D4E9012130209047206AC5
:1003A000401C2062381EA7F10107F4DC07E0D4E905
:1003B000012118F805009047206A401C2062281E81
:1003C000A5F10105F3DC2046AFF30080207800069C
:1003D00002D50220BDE8F0870120FBE770472DE938
:1003E000FF4F0C461E464FF0FF378BB0D2E900019D
:1003F000DDF860800A908A46C1F30A5505B93D468A
:10040000002108464FF00000BAF1000F00F4400050
:1004100005DA00EB80004FF4400101EA50004FEA9A
:100420009059B9F1010F00DDB9460A9850EA4A0027
:100430000ED044F61050A5F2FF3545432F14B8F105
:10044000000F1ED07542291E1EDDC9F100021CE0FE
:10045000B8F1010F4FF0000001D0302103E0F2436A
:1004600005E02154401CB042FBDB30460022002155
:1004700021540B99C1F80880C1E900200FB0BDE8F4
:10048000F08FBD1B6D1CDEE74A4600DA694206A804
:1004900000F05AFA06AB93E8070003AB83E80700C5
:1004A00050460A9900F037FB8DE80700A0F5005090
:1004B0001F3800900398002D09DD42F21F014A46C3
:1004C000084403A90390684600F096FD08E0A0F5F3
:1004D00000504A461F3803A90390684600F0A0FD6B
:1004E0008DE807000004000C03D04FF0FF304108F6
:1004F00000E01046B8F1000F03D00022009215462C
:100500001EE0751E05D400F099F9303262556D1E5B
:10051000F9D5B3460122084302D000227F1C04E033
:100520002078302801D100227F1E002A099786D02A
:100530001DE0112D07DA00F081F9303262556D1C93
:1005400050EA0102F5D1084302D00098C8B10EE08C
:100550000021681E05E0235C625C63542254401E47
:10056000491C8142F7DBAB46A81B401E09900020C6
:1005700004F80B000B98099AC0F80880C0E9002B1A
:100580007CE711264FF0000859E72DE9F04F884627
:100590000446D21D22F0070191B0D1E90001CDE956
:1005A0000A0101F011FE02460B98C00F01D02D2068
:1005B00007E02068810701D52B2002E0202101EA15
:1005C000C000032A099001D0072A05DB03464146F3
:1005D000204600F079F90BE12078800601D5E0692A
:1005E00000E00620B8F1650F814606D0B8F1660F2D
:1005F00018D0B8F1670F70D131E00020B9F1110FB8
:10060000009001DB112301E009F101030AAA01A90D
:100610000CA8FFF7E4FEDDE90C70002609F10105E6
:10062000834647E001204B4600904FF000470AAA5E
:1006300001A90CA8FFF7D3FEDDE90DB00C995D46CA
:10064000002610B909F101000D18B9EB050003D41B
:10065000C0F1FF3609F10105A5EB09002BE0B9F166
:10066000010F01DA4FF001090020B9F1110F0090DC
:10067000484601DD112300E003460AAA01A90CA89F
:10068000FFF7ADFEDDE90C704D460026834620786D
:1006900000070AD4AB4500DA5D4601A8012D04DD50
:1006A000411911F8011C302907D04F4502DA17F122
:1006B000040F04DA012082460FE06D1EEEE7002FE2
:1006C00002DCED1B3E4403E0781CA84200DD7D1CEB
:1006D000B81B00F1010A4FF000472078000703D44F
:1006E000AA4501DB4FF0FF3A0021B7F1004F0DF1B1
:1006F00043088DF8431024D002202B23002F01DA69
:100700007F422D230A21021EA0F1010000DC5FB10F
:1007100097FBF1FC97FBF1F201FB1C7C17460CF1F7
:10072000300C08F801CDEEE7A8F101000370218834
:10073000090501D5452100E06521A0F1010800F877
:10074000011C09980FA9A1EB0807FF1D00B10120AA
:10075000411901EBEA70A1693844081A401EA061F2
:100760002078C00602D42046AFF30080099828B153
:10077000D4E901219047206A401C20622078C006FD
:1007800022D52046AFF300801EE0002E04DBB345E7
:1007900002DD01A8805D00E03020D4E9012190470E
:1007A000206A401C2062761CAAF101005FEA000A60
:1007B0000AD100F03FF8C0680168405CD4E901212B
:1007C0009047206A401C2062281EA5F10105DCDC50
:1007D00007E0D4E9012118F8010B9047206A401C7A
:1007E0002062381EA7F10107F3DC2046AFF300803A
:1007F000032011B043E6000001694A1C0261087839
:10080000704700B58FB0CDE9013100210591054950
:100810007944CDE9031011466846FFF713FD0FB088
:1008200000BD0000E5FFFFFF0A6802F8010B0A6047
:1008300070470000004870479800002030B5B0F1C4
:100840000A024FEA900E71F100034EEA817EB0EB8E
:100850000E0061EB91014FEA101E4EEA017E10EB93
:100860000E0041EB11114FEA102E4EEA016E10EB13
:100870000E0041EB11214FEA104E4EEA014E10EBF3
:100880000E0041EB1141401841F100014FEAD00048
:1008900040EA41704FEAD10110EB80054FEA810434
:1008A00044EA907444EB01046D1944EB0404521BB8
:1008B000A3414FF0000348BF0A3200D530BD401CB1
:1008C00041F1000130BD00002DE9F0411F46044612
:1008D00003260168072A01F4006004DB08B116A5AD
:1008E00005E016A503E008B115A500E015A521F067
:1008F00010002060A069C01EA0610FB1401EA06161
:100900002046AFF300804FB1D4E90121384690472B
:10091000206A401C2062C01C206206E0206AFAE7C0
:10092000D4E9012115F8010B9047761EF8D2204634
:10093000AFF30080BDE8F0814E414E006E616E0065
:10094000494E4600696E66002DE9F047814616461D
:100950008AB0334878440DC88DE80D00304878449B
:10096000801C03AC0DC884E80D0041F69B300844A0
:10097000372190FBF1F290FBF1F5A5F1800501FB29
:1009800012041B3C02D56442012000E00020DFF885
:1009900090A080460027FA44AAF1BE0A0DE0E007C5
:1009A00009D03246684607EB47010AEB810100F0A7
:1009B00037FB8DE8070064107F1C002CEFD1184F27
:1009C0007F44AC3F18E0E80714D007EB04100DF1AA
:1009D000180A90E80E008AE80E00C068F04201D1C3
:1009E00098190890324606A903A800F019FB03AB3A
:1009F00083E807006D10641C002DE4D1324669467F
:100A0000B8F1000F03A802D000F0F6FA01E000F000
:100A100007FBC9E90001C9F808200AB0BDE8F08762
:100A2000FC24000000487047780000207546FFF75E
:100A3000F9FFAE4605006946534620F0070085469B
:100A400018B020B5FFF7D8FBBDE820404FF00006F6
:100A50004FF000074FF000084FF0000B21F00701A6
:100A6000AC46ACE8C009ACE8C009ACE8C009ACE8E9
:100A7000C0098D46704710B50446AFF3008020468C
:100A8000BDE81040FFF7A3BB4FF0013C50F8042B2A
:100A900051F8043B9A4221D1A2EB0C03934313EA91
:100AA000CC1317D150F8042B51F8043B9A4215D1BE
:100AB000A2EB0C03934313EACC130BD150F8042B95
:100AC00051F8043B9A4209D1A2EB0C03934313EA79
:100AD000CC13DBD04FF00000704700BFD01A01BA32
:100AE000B1FA81F101F0180122FA01F0CB40C1F115
:100AF0002001DBB2C0B2C01A2CFA01F3D11A914323
:100B000011EAC311E6D1704701491820ABBEFEE7D8
:100B10002600020070475FEA400C08BF91F0000F0A
:100B20004FEA8C234FEAC12243EA51514FEA1C504D
:100B300018BF00F5F0404FEA300018BF41F0004107
:100B40005FEA6C5C00F02980BCF1FF3F08BF40F019
:100B500080407047130C06BF12044FF0100C4FF08A
:100B6000000C130E04BF12020CF1080C130F04BF8B
:100B700012010CF1040C930F04BF92000CF1020C53
:100B8000D30F04BF52000CF1010C11464FF00002CC
:100B9000A0F11F00A0EB0C00704711F0004F08BF40
:100BA000704731F000413FF4D5AF0B0C06BF09048C
:100BB0004FF0100C4FF0000C0B0E04BF09020CF1AB
:100BC000080C0B0F04BF09010CF1040C8B0F04BFC0
:100BD00089000CF1020CCB0F04BF49000CF1010C91
:100BE000CCF12003A0EB0C0022FA03F302FA0CF282
:100BF00041EA030100F10100704720F07F4C80EAD8
:100C0000030023F07F47ACEB070303F57C5300F0B0
:100C1000004003F1FF032DE980494FEA154B09B469
:100C20004FEA144325EA0B4E24EA03480FF2042648
:100C300006EB132749083E785FEA320203FB06679A
:100C4000C7F5000707FB06F64FEA54374FEAD646CA
:100C500006F1020607FB066CCCF1005C4FEA1C476C
:100C60002CEA074C07FB06F40CFB06F504EB1546D3
:100C70004FEA961634BF00204FF000404FEAD137BC
:100C800006FB07FC4FEA1C4C0CFB0BF7D21B03FBCB
:100C90000CF761EB07010CFB0EF7B0EB074072EBB2
:100CA00017420CFB08F734BFA2EB0742B2EB074236
:100CB00061EB17414FEA0C444FEA910706FB07FC32
:100CC0004FEA1C4C0CFB0BF7B0EBC74072EB5732F2
:100CD00003FB0CF734BFA2EBC742B2EBC74261EB98
:100CE00057310CFB0EF7B0EBC70072EB57720CFBE1
:100CF00008F734BFA2EBC702B2EBC70261EB577132
:100D0000039F4FEA816141EA921104EBCC044FEA60
:100D1000D1374FEA826206FB07FC42EA90124FEAA3
:100D200080604FEA1C4C0CFB0BF7D21B03FB0CF74B
:100D300061EB07010CFB0EF7B0EB074072EB1742BB
:100D40000CFB08F734BFA2EB0742B2EB074261EBA2
:100D500017414FEA8C554FEA910704EB9C2406FBA0
:100D600007FC4FEA1C4C0CFB0BF7B0EBC74072EBD7
:100D7000573203FB0CF734BFA2EBC742B2EBC742BA
:100D800061EB57310CFB0EF7B0EBC70072EB5772FB
:100D90000CFB08F734BFA2EBC702B2EBC70261EB52
:100DA000577115EB4C254FEA816141EA92114FEAE8
:100DB00082624FEAD13742EA901206FB07FC44F107
:100DC00000044FEA80604FEA1C4C0CFB0BF7D21B6F
:100DD00003FB0CF761EB07010CFB0EF7B0EB0740D0
:100DE00072EB17420CFB08F734BFA2EB0742B2EBE1
:100DF000074261EB174115EB1C154FEA813141EABF
:100E000092414FEA823242EA90424FEA80304FEA02
:100E10000C7644F1000448EA03434EEA0B484FF0D5
:100E2000000EB2EB080C71EB030724BF6246394693
:100E30004EEB0E0E4FF0000B0018524149414BEBA8
:100E40000B0BB2EB080C71EB03077BF1000B24BF1B
:100E5000624639464EEB0E0E4FF0000B0018524121
:100E600049414BEB0B0BB2EB080C71EB03077BF129
:100E7000000B24BF624639464EEB0E0E51EA0207C4
:100E800018BF46F0010616EB0E7655F1000254F13C
:100E9000000103D5BDE88901BDE80088BDE88901EE
:100EA000BDE80048B619524141EB0101A3F101032D
:100EB000704780807F7E7D7C7B7A797877767675C7
:100EC0007473727171706F6E6E6D6C6C6B6A6A693F
:100ED0006868676666656464636362616160605FD9
:100EE0005F5E5E5D5D5C5C5B5B5A5A595958585752
:100EF00057565655555554545353525252515150BA
:100F000050504F4F4F4E4E4D4D4D4C4C4C4B4B4B0C
:100F10004A4A4A4949494848484747474746464652
:100F2000454545444444444343434342424242418D
:100F30004141002B26D4770021D01CB54FEA37075A
:100F400003B44FF010004FF010014FF000000FBC41
:100F5000BDE810400BF1010BBBF1010F08BF5FEAC8
:100F6000170722BF12F1010211F101014FF00041F8
:100F700043F1000300F0004043EA00007047F9D35A
:100F80005708DAE746EA064613F1400F4FEA1646DD
:100F90001FDD13F1200FDFBF16430A460021203367
:100FA0005B42C8D0C3F1200746EA064602FA07F7BB
:100FB0004FEA164646EA0706C3F1200722FA03F273
:100FC00001FA07F721FA03F14FF0000342EA0702A2
:100FD000B1E746EA020646EA06464FEA164646EA00
:100FE0000106BCBF46EA0646360C4FF000034FF040
:100FF00000024FF000019EE72DE9C048934630B44F
:1010000091E8380007C831EA400C48BF34EA430C85
:1010100003D5FFF7F2FDFFF78CFFF0BCBDE80088B9
:101020002DE9C048934630B491E8380007C810F065
:10103000804F08BF13F0804F03D100F005F8FFF791
:1010400078FFF0BCBDE8008820F07F4780EA03000D
:1010500023F07F4C07EB0C03A3F57C5300F000401A
:10106000A3F1FE0392F0000F00F0B38095F0000FA3
:1010700000F077802DE901494FEA11404FEA14460C
:1010800021EA004800FB06FC24EA064708FB06F6B6
:1010900007FB08F800FB07F718EB06484CEB164C6B
:1010A0004FEA124B18EB07484FEA15464CEB174036
:1010B00022EA0B4E0BFB06FC25EA06470EFB06F662
:1010C00007FB0EFE0BFB07F71EEB064E4CEB164C18
:1010D0004FF000061EEB074E4CEB174B18EB0B08BE
:1010E00040F1000018EB0E0B58EB000840F1000037
:1010F0008F1A4FF000013CBFC943661B14BFB5EB0C
:10110000040C00213CBFC943F61B4FEA17444EEACA
:101110008E0E27EA04454FEA1C4704FB07622CEABF
:10112000074C05FB07F70CFB05F604FB0CFC16EB64
:10113000074642EB174216EB0C4642EB1C421BEBF8
:10114000060658EB0202414146EA9E0601D5BDE87B
:101150000189B619524141EB0101A3F10103BDE838
:1011600001894FEA14454FEA114724EA054621EA6E
:10117000074C05FB07F406FB07F70CFB06F105FB24
:101180000CFC11EB074144EB17444FEA124711EBFB
:101190000C4144EB1C4422EA074C05FB07F206FB1A
:1011A00007F70CFB06F605FB0CFC16EB074642EBBB
:1011B000174216EB0C4642EB1C456A1854F100012D
:1011C00048BF7047B619524141EB0101A3F1010339
:1011D000704795F0000F37D04FEA11424FEA14479D
:1011E00021EA024624EA074C02FB07F106FB07F757
:1011F0000CFB06F402FB0CFC14EB074441EB17411B
:101200004FEA154714EB0C4441EB1C4125EA074C0F
:1012100002FB07F506FB07F70CFB06F602FB0CFCCE
:1012200016EB074645EB174516EB0C4645EB1C4203
:10123000121951F1000148BF7047B619524141EBF4
:101240000101A3F1010370474FEA14454FEA11472A
:1012500024EA054621EA074C05FB07F106FB07F7E0
:101260000CFB06F24FF0000605FB0CFC12EB0742EC
:1012700041EB174112EB0C4251EB1C4148BF704748
:10128000921841EB0101A3F10103704710B5002052
:10129000194908600871012048714FF46020886086
:1012A0000020C86001200874144800F04DF80523A0
:1012B00001220021114800F06FF801210F4800F0D1
:1012C0001FF8012000F0DAF80C4800F0C1F800BF68
:1012D0000A4800F02EF80028FAD1084800F0C8F8B3
:1012E00000BF064800F017F80028FAD10121034892
:1012F00000F0B3F810BD00005000002000240140B1
:1013000021B1826842F00102826003E0826822F02B
:10131000010282607047014600208A6802F00402E0
:101320000AB1012000E0002070470146C86C80B27D
:101330007047014600208A6802F008020AB10120C5
:1013400000E000207047000030B502460020002376
:1013500050680F4C20400D790C6844EA0524204366
:10136000506090680B4C2040D1E902542C434D79D9
:1013700044EA450420439060D06A20F470000C7C5D
:10138000641EE4B2234340EA0350D06230BD000043
:10139000FFFEF0FFFDF7F1FFF0B504460D4600201B
:1013A0000021092D11DDE068A5F10A0606EB4607CC
:1013B000072606FA07F18843A5F10A0606EB46065A
:1013C00003FA06F10843E0600CE0206905EB4507ED
:1013D000072606FA07F1884305EB450603FA06F1EE
:1013E00008432061072A0FDA606B561E06EB86075A
:1013F0001F2606FA07F18843561E06EB860605FAF5
:1014000006F10843606322E00D2A0FDA206BD61F35
:1014100006EB86071F2606FA07F18843D61F06EB60
:10142000860605FA06F10843206310E0E06AA2F19F
:101430000D0606EB86071F2606FA07F18843A2F180
:101440000D0606EB860605FA06F10843E062F0BDDC
:10145000816841F008018160704721B1826842F4DF
:10146000A002826003E0826822F4A00282607047DA
:10147000816841F0040181607047000030B1074984
:10148000096841F40001054A116005E00349096853
:1014900021F40001014A1160704700000824014056
:1014A00000BFFEE70EB50121084600F035FC002024
:1014B000ADF802004FF6FF70ADF804000220ADF861
:1014C000000000208DF8080069464FF0804000F0D1
:1014D00077FD0EBD704710B5FFF7E4FF01218807C7
:1014E00000F05CFD00214FF0804000F066FD00BF81
:1014F0004FF0804000F05EFD48F6A0418842F7DBE7
:1015000000214FF0804000F049FD10BD10B5FFF7FD
:10151000C9FF0121880700F041FD00214FF0804004
:1015200000F04BFD00BF4FF0804000F043FD242849
:10153000F9DB00214FF0804000F030FD10BD10B508
:10154000044601E0FFF7C7FF201EA4F10104F9D112
:1015500010BD10B5044601E0FFF7D8FF201EA4F12E
:101560000104F9D110BD000010B50121480200F0BE
:10157000F3FB0121042000F0EFFB0121082000F023
:10158000EBFB0120124908800020C870114800F0D0
:1015900025F802200E4908800020C8700D4800F090
:1015A0001DF84FF480500A4908801020C8700320AD
:1015B0008870084800F012F80120054908801020C2
:1015C000C87003208870044800F008F810BD0000BF
:1015D0001800002000080140000C01402DE9F041F6
:1015E000024600250026002000230024002791F851
:1015F00003C00CF00F0591F803C00CF0100CBCF107
:10160000000F03D091F802C04CEA050591F800C024
:10161000BCF1000F31D0146800202BE04FF0010C1A
:101620000CFA00F3B1F800C00CEA03069E4220D188
:1016300083004FF00F0C0CFA03F7BC4305FA03FCD0
:101640004CEA040491F803C0BCF1280F06D14FF016
:10165000010C0CFA00FCC2F814C00AE091F803C0B7
:10166000BCF1480F05D14FF0010C0CFA00FCC2F898
:1016700010C0401C0828D1D31460B1F800C0BCF1E0
:10168000FF0F34DD546800202EE000F1080C4FF00D
:10169000010808FA0CF3B1F800C00CEA03069E42F8
:1016A00021D183004FF00F0C0CFA03F7BC4305FA6D
:1016B00003FC4CEA040491F803C0BCF1280F05D1E7
:1016C00000F1080C08FA0CF8C2F8148091F803C075
:1016D000BCF1480F07D100F1080C4FF0010808FADF
:1016E0000CF8C2F81080401C0828CED35460BDE826
:1016F000F0810000F0B50A460023002400210025F7
:1017000000F00046B6F1004F02D11D4EF16901E034
:101710001B4E7168C0F3034583B200F44016B6F562
:10172000401F08D121F07061154E766826F0706672
:10173000134F7E6012E000F48016B6F5801F06D1CC
:10174000032606FA05F4A14341F0706106E0460D58
:10175000360103FA06F6B14341F0706122B1460D3D
:10176000360103FA06F6314300F00046B6F1004FA9
:1017700002D1034EF16101E0014E7160F0BD000045
:1017800000000140416170470161704700BFFEE702
:1017900021B1028842F48062028004E002884FF6A0
:1017A000FF331A400280704770B5024600240025BE
:1017B00000230020958A138B1B0445EA030626F0BC
:1017C0007F4404EA01068E4201D1012000E000209E
:1017D00070BD21B1028842F00102028004E002885B
:1017E0004FF6FE731A400280704721B1028842F41E
:1017F0008072028004E002884FF6FF631A40028084
:10180000704721B1028842F40072028004E002882D
:101810004FF6FF531A40028070470CB50246002075
:1018200000230193009300920B0F019321F07F415D
:10183000019B1BB1009B1433009303E0090C009B38
:1018400018330093009B1B680B400BB1012000E094
:1018500000200CBD2DE9F04385B004460D4600265E
:10186000B1460427DFF8CC80A6884FF6C07006404A
:10187000684600F081FADDF808802F48B8FBF0F0E8
:101880001FFA80F946EA0906A68020884FF6FE7105
:101890000840208000262949286888420CD82868FA
:1018A0004000B8FBF0F087B2042F00DA04273E4373
:1018B00009F10100208427E0E8884BF6FF71884297
:1018C00006D1286800EB4000B8FBF0F087B209E0D1
:1018D000286800EBC00101EB0010B8FBF0F087B204
:1018E00047F48047C7F30B0008B947F0010747F4F6
:1018F000004006434FF4967009FB00F04FF47A71F4
:1019000090FBF1F0401C2084A683208840F0010069
:10191000208026884FF6F5300640A888698908435C
:1019200006432680A88929890843208105B0BDE89F
:10193000F083000000127A0040420F00A0860100F0
:10194000B1F5006F04D1028842F40062028004E025
:1019500002884FF2FF731A40028070470146088ADE
:10196000C0B2704712B141F0010102E04FF6FE73C0
:101970001940018270470182704700007FB504461C
:101980000E4615460121084600F0E6F92848844233
:101990001FD10121480500F0BFF9304600F024F9BD
:1019A0000121480500F0C8F900214FF4001000F0B3
:1019B000C3F900952014ADF80C000020ADF8040028
:1019C000ADF80800ADF80A004BF6FF70ADF8060060
:1019D00021E0184884421ED10121880500F09CF9BD
:1019E000304600F001F90121880500F0A5F9002139
:1019F0004FF4800000F0A0F900952014ADF80C0021
:101A00000020ADF80400ADF80800ADF80A004BF670
:101A1000FF70ADF8060000212046FFF7DAFE6946A8
:101A20002046FFF717FF01212046FFF7D2FE7FBDBA
:101A3000005400400058004010B504461CB101207D
:101A40000449C87002E000200249C87000F00AF89A
:101A500010BD00003600002010B5012000F074F821
:101A600010BD000010B500240EE00B4800784010B7
:101A7000094908700948005D20B10846007840F027
:101A800080000870601CC4B2082CEEDB0122024901
:101A90004E2000F0E1F810BD3E000020360000208E
:101AA00010B53220FFF74BFD002404E000201B4955
:101AB0000855601CC4B2082CF8DBFFF7D3FF0020E8
:101AC00016490870FFF7CEFF002014494870FFF751
:101AD000C9FF032000F050F80520FFF730FD032078
:101AE00000F04AF80120FFF72AFD032000F044F837
:101AF0000120FFF724FD022000F03EF80120FFF74F
:101B00001EFD282000F020F80C2000F01DF80E200B
:101B100000F01AF8012000F017F810BD3600002080
:101B200010B5C02000F010F810BD10B5044607E055
:101B3000207820B114F8010B00F0D2F800E000E0AA
:101B4000F6E700BF10BD000010B5044600F092F8A3
:101B5000002008490870FFF785FF002005494870FC
:101B6000FFF780FF201100F007F8204600F004F88E
:101B700010BD00003600002010B5044604F0080037
:101B800018B101201749C87102E000201549C87139
:101B900004F0040018B101201249887102E000200D
:101BA0001049887104F0020018B101200D494871F4
:101BB00002E000200B49487104F0010018B1012037
:101BC0000849087102E00020064908710120054912
:101BD0008870FFF747FF002002498870FFF742FF37
:101BE00010BD00003600002010B504460121082079
:101BF00000F0B2F8012C03D1C0200E4908800FE09C
:101C0000022C08D14FF440700A49088001210220BB
:101C1000FFF770FD04E0032C02D1A0020549088003
:101C20001C200449C870032088700348FFF7D6FCC5
:101C300010BD000032000020000C014070B50446C9
:101C40000D461646234632462946024800F0D0FA91
:101C500070BD00000054004070B504460D461646A5
:101C6000234632462946024800F0C6FB70BD0000FC
:101C70000054004008B50120184908714871887166
:101C8000C871FFF7EFFE002014490870FFF7EAFE65
:101C9000012012494870FFF7E5FE00BF01200F49FF
:101CA0008870FFF7DFFE012269464F20FFF7C6FF6D
:101CB00000200A498870FFF7D5FE01200749887087
:101CC000FFF7D0FE002005498870FFF7CBFE9DF896
:101CD000000000F008000028E0D108BD3600002018
:101CE00010B50446FFF7C6FF012008490870FFF74A
:101CF000B9FE002005494870FFF7B4FE2011FFF738
:101D00003BFF2046FFF738FF10BD000036000020E3
:101D100000BFFEE77047704729B1064AD269024307
:101D2000044BDA6104E0034AD2698243014BDA6171
:101D3000704700000010024029B1064A12690243B0
:101D4000044B1A6104E0034A12698243014B1A6191
:101D5000704700000010024029B1064A9269024310
:101D6000044B9A6104E0034A92698243014B9A61F1
:101D7000704700000010024030B50021002200240E
:101D800000232D4D6D6805F00C0121B1042905D00B
:101D9000082923D105E0294D056022E0274D056083
:101DA0001FE0254D6D6805F47012234D6D6805F434
:101DB0008034022505EB92421CB9214D5543056044
:101DC0000BE01D4D6D6805F400351DB11C4D5543EC
:101DD000056002E0194D5543056002E0174D0560AE
:101DE00000BF00BF144D6D6805F0F0010909154DE5
:101DF0006B5C0568DD4045600F4D6D6805F4E06182
:101E0000090A104D6B5C4568DD4085600A4D6D68C0
:101E100005F46051C90A0B4D6B5C4568DD40C56037
:101E2000054D6D6805F44041890B074D6B5CC56835
:101E3000B5FBF3F5056130BD0010024000127A00D9
:101E400000093D000000002010000020704710B580
:101E500000F002F810BD00000CB5002001900090C9
:101E60003348006840F480303149086000BF304892
:101E7000006800F4003000900198401C0190009828
:101E800018B90198B0F5A06FF1D12948006800F4A5
:101E9000003010B10120009001E000200090009877
:101EA000012843D12348006840F010002149086010
:101EB0000846006820F0030008600846006840F00B
:101EC000020008601A48406819494860084640689E
:101ED00048600846406840F48060486008464068B2
:101EE00020F47C1048600846406840F4E8104860E0
:101EF0000846006840F08070086000BF0C48006829
:101F000000F000700028F9D00948406820F0030074
:101F1000074948600846406840F00200486000BF3A
:101F20000348406800F00C000828F9D10CBD0000FF
:101F300000100240002002407047000010B5134816
:101F4000006840F0010011490860084640681049E7
:101F500008400E494860084600680E4908400B4991
:101F600008600846006820F4802008600846406841
:101F700020F4FE0048604FF41F008860FFF767FF01
:101F80004FF000600449086010BD000000100240DE
:101F90000000FFF8FFFFF6FE08ED00E021B1028827
:101FA00042F00102028004E002884FF6FE731A40FC
:101FB000028070470146888C70478184704700001A
:101FC000002202881D4B98420ED01D4B98420BD028
:101FD000B0F1804F08D01B4B984205D01A4B984265
:101FE00002D01A4B984204D14FF68F731A404B8897
:101FF0001A43174B984207D0164B984204D04FF61D
:10200000FF431A40CB881A4302808B8883850B8854
:1020100003850A4B98420BD0094B984208D00E4BCF
:10202000984205D00D4B984202D00D4B984201D1F9
:102030000B7A03860123838270470000002C014045
:10204000003401400004004000080040000C004043
:1020500000100040001400400040014000440140D6
:102060000048014010B501210420FFF775FE012151
:102070008803FFF771FE4FF40070124908801820A2
:10208000C870032088701048FFF7A8FA4FF48060EA
:102090000C4908800420C8700B48FFF79FFA4FF4E2
:1020A000E1300A49086000208880C8800881888162
:1020B0000C204881064800F019F80121044800F07E
:1020C00009F810BD18000020000801404000002061
:1020D0000038014021B1828942F40052828104E03B
:1020E00082894DF6FF731A40828170472DE9F047CF
:1020F00086B005460E460024A24600BFA146002732
:10210000B08900B100BF2F462C8A4CF6FF70044006
:10211000F08804432C82AC894EF6F3100440B0885A
:1021200031890843718908430443AC81AC8A4FF676
:10213000FF400440B0890443AC8201A8FFF71CFEB5
:102140001F48874202D1DDF810A001E0DDF80CA0A5
:10215000A88900F4004040B10AEBCA0000EB0A1065
:1021600031684900B0FBF1F807E00AEBCA0000EB68
:102170000A1031688900B0FBF1F86420B8FBF0F078
:1021800004012009642101FB1089A88900F40040A2
:1021900040B1322000EBC900B0FBF1F000F00700C5
:1021A000044308E0322000EB09106421B0FBF1F099
:1021B00000F00F0004432C8106B0BDE8F08700005A
:1021C0000038014000BFFEE7490050EAC12018BFB7
:1021D00004204A0D18BF40F0010040F2FF72B2EB3C
:1021E000515F08BF40F00200012808BF052070477A
:1021F000F8B505460C4616461F46002000900EB95D
:102200000120F8BD4FF6FF70009004E00098411ED9
:10221000009100B9EAE04FF400312846FFF7FDFADB
:102220000028F3D101212846FFF7B2FA4FF2FF71DF
:102230002846FFF785FB01212846FFF7D6FA4FF61F
:10224000FF70009004E00098411E009100B9CDE0BD
:1022500067492846FFF7A8FA0028F4D0012239463A
:102260002846FFF77FFB4FF6FF70009004E00098D0
:10227000411E009100B9B9E05E492846FFF7CDFA4A
:102280000028F4D0012E20D100212846FFF780FA43
:1022900072B6288B01212846FFF7B3FA62B64FF6D3
:1022A000FF70009004E00098411E009100B99DE08D
:1022B00050493E312846FFF7B0FA0028F3D02846AF
:1022C000FFF74CFB04F8010B7EE0022E27D1B10290
:1022D0002846FFF735FB72B6288B00212846FFF70A
:1022E00057FA62B64FF6FF70009004E00098411E66
:1022F000009100B97AE03F49891C2846FFF78DFA22
:102300000028F3D072B601212846FFF77AFA288A0E
:1023100004F8010B62B6288A04F8010B54E0288BFC
:1023200014E04FF6FF70009004E00098411E009109
:1023300000B95BE02F49891C2846FFF76EFA002898
:10234000F3D02846FFF70AFB04F8010B3046761E4F
:102350000328E6D14FF6FF70009004E00098411E7C
:10236000009100B942E02349891C2846FFF755FA3D
:102370000028F3D000212846FFF70AFA72B6284653
:10238000FFF7ECFA04F8010B01212846FFF739FAB0
:1023900062B62846FFF7E2FA04F8010B4FF6FF7029
:1023A000009004E00098411E009100B91EE0104921
:1023B0003F312846FFF7F8F90028F3D02846FFF709
:1023C000CDFA04F8010B00264FF6FF70009004E0F0
:1023D0000098411E009100B908E006490E312846D8
:1023E000FFF71BFA0028F3D101200AE7002008E7D5
:1023F0000100030002000010F8B507460C46154620
:102400001E4600200090002D77D04FF6FF70009000
:1024100004E00098411E009100B970E04FF40031D3
:102420003846FFF7FAF90028F3D101213846FFF7C3
:10243000DCF94FF6FF70009004E00098411E009117
:1024400000B95CE02F493846FFF7AEF90028F4D018
:10245000002231463846FFF785FA4FF6FF700090AC
:1024600004E00098411E009100B948E02649384632
:10247000FFF79AF90028F4D014F8011B3846FFF74B
:102480007AFA13E04FF6FF70009004E00098411EC6
:10249000009100B933E01D493846FFF7BEF9002826
:1024A000F4D014F8011B3846FFF765FA681E051EC4
:1024B000E8D14FF6FF70009004E00098411E0091B3
:1024C00000B91CE011493846FFF7A7F90028F4D0FD
:1024D00001213846FFF795F94FF6FF70009005E0AF
:1024E0000098411E009108B909E006E007490C3147
:1024F0000748FFF792F90028F2D10120F8BD00202B
:10250000FCE7000001000300820007000400001047
:1025100000540040FFF7A6FDFEF7C4FFFFF724F8C4
:1025200001214148FFF730F9404A01214048FFF7B7
:1025300025FAFFF7B5FAFFF78FFA0120FFF77CFACB
:10254000FEF7A4FE6EE001213748FFF71BF94FF4B8
:102550008C70FEF7FEFF3748FEF7E7FE364908604D
:102560002820FEF7F6FF01212F48FFF70DF942F270
:10257000D050FEF7EEFF3048006800F077F90646CD
:102580002E4A2F4B00F086F9044600F095F82D49AD
:1025900008600846006800F065FB80462A4A2B4B1D
:1025A00000F078F906462A4A2A4B00F071FA0446F0
:1025B0000022294B00F06EF9824600F07DF8274991
:1025C000086000212548006800F084FB02D200204A
:1025D00022490860184822A102682248FDF71EFE21
:1025E0001E48006800F03EFB044622460B461EA132
:1025F0001E48FDF713FEFFF72FFA1DA0FFF795FA0F
:102600001848FFF792FAFFF78BFA1CA0FFF78DFA34
:102610001648FFF78AFA1BA0FFF787FA4FF4FA7003
:10262000FEF78DFF8FE70000000C0140A08601003F
:1026300000540040002401402000002014400114F8
:102640004001543F24000020C3F5285C8FC2C53FE1
:102650009A9999999999B93F00408F402800002094
:102660002564000064000020256700006E00002043
:10267000566C6175655F4144433A0000447573745C
:102680003A0000002875672F6D33290010B5002926
:102690000AD00878002807D005487844FEF7F4F9F6
:1026A000002801D0002010BD0248784410BD000071
:1026B000F2070000EA07000021F00042A2F1605298
:1026C000B2F5801F01F0004328BFD2F17F6C0BD917
:1026D0005FEA001C43EAC20242EB507018BF704729
:1026E00028BF20F001007047B2F5801FBCBF18461C
:1026F00070474FEA410C1CF5001F02D2084600F05B
:1027000063BB70B500F070F900000089FFF7F6BFF9
:102710004FF00040A0F580007047000010B591EA2E
:10272000030F48BF83F0004300F1BA81841A71EBB4
:10273000030C05D2121943EB0C03001B61EB0C01D7
:10274000DFF824E14FEA1154A4EB135C1EEA430FB7
:1027500018BF9EEA445F73D023EA0E03DCF1200E1B
:1027600021EA045143F4801332D322FA0CFE10EB19
:102770000E0023FA0CFE41EB0E01CCF1200E03FA01
:102780000EFE10EB0E0051F10001B1F5801FCCF1EF
:10279000200E32D201EB045112FA0EF2BDE81040C5
:1027A00058BF7047401C38BF5FEA420218BF7047ED
:1027B000002814BF20F0010041F100014FEA41035D
:1027C00013F5001F38BF7047A1F1C04100F05AB99E
:1027D000012A43EB0302ACF1200CDCF11F0E32BFE7
:1027E0004FF0000E23FA0CF310EB030041EB045101
:1027F000B4EB115FD0D0A1EB045101F58011490871
:102800005FEA300001EB04510ED350F1000038BFF5
:1028100012FA0EFE08D1BDE81040C9E7401C38BFCF
:102820005FEA4202CAD1C3E7BDE810404FEA410364
:1028300013F5001F38BF7047A1F1C04100F022B965
:102840009EEA445F08D011EA5E0FBDE8104004BF65
:1028500001F0004100207047BDE8104070B500F065
:10286000C3F800BF64FBBE3E0000E0FFB0FA80F397
:1028700010FA03F10AD0C3F11D0303F580634FEA98
:1028800041504FEA035202EBD12170474FF0000054
:1028900070470000DFF848C170B51CEA111E1EBF6A
:1028A0001CEA13159EEA0C0F95EA0C0F00F06F80DE
:1028B00081EA030423EA4C134EEAD47E21EA4C1148
:1028C00041F4801143F48013AE44A1FB024CA0FB01
:1028D0000365AEF17F7E361955EB0C05A1FB034C69
:1028E0004CF10003A0FB021C16EB0C06654153F1F2
:1028F0000003094218BF46F0010613F4007F0BD114
:102900004FEA03314FEA0530340341EA155140EAFA
:1029100016506FF003020AE04FEAC3214FEAC520C8
:10292000F40241EA555140EA56506FF0020202EBC0
:102930002E4201EB025585EACE710AD05FEA440CC3
:1029400018BF24F0004450F1000041F1000120EADA
:10295000D47040F2FE7C624500D270BDA84214BF24
:102960004FF080444FF04044002E08BF0024BEF1D9
:10297000806FA8BFA1F1C041BDE8704080F28280A5
:102980004FF0000001F1C04101F0004170479EEAA4
:102990000C0F0CEA131518BF95EA0C0F06D04FF078
:1029A000000081EA030E0EF0004170BD00F01CF83B
:1029B0008900013E00F007B800F009B84FEA430C67
:1029C0005FEA5C5C08D081EA030100F05BB84FEA83
:1029D000410C5FEA5C5CF6D14FF0000001497047A2
:1029E0000000FF070000F87F0EF1020E2EF0030E2C
:1029F0005EF8046B364205D4012A43EB030515F556
:102A0000001F12D8012841EB010C1CF5001F0CD847
:102A10000ED14FEAD17C15F5001F0CEB4C0C0CF1DC
:102A2000020C08BF4CEBD37C04E04FF0080C01E033
:102A30004FEAD37C0CEB4C0526FA05F606F00706A8
:102A4000B6F1040C06D20EEB860CBDE870404CF0DB
:102A5000010C6047DFE80CF0090B02024FF0004167
:102A60004FF00000A1F5002170BD19461046012865
:102A700051EB010418BFD4F5001484BF002001F00D
:102A8000004170BD0808A0F500114FEA3101704700
:102A900010B591EA030F48BF83F000433FF546AEFF
:102AA000841A71EB030C07D212198CF0004C43EB23
:102AB0000C03001B61EB0C01DFF8A4E14FEA115499
:102AC000A4EB135C1EEA430F18BF9EEA445F00F0BC
:102AD000B08023EA6E03524221EA0451C3EB6E0335
:102AE00038BF5B1EDCF1200E25D322FA0CFE10EB62
:102AF0000E0043FA0CFE41EB0E01CCF1200E03FA5E
:102B00000EFE10EB0E0051F10001CCF1200E29D485
:102B100012FA0EF201EB0451BDE8104058BF7047A5
:102B2000401C1CBFB2F1004F704700280CBF491C6D
:102B300020F00100704712EB020E43EB030218BFB6
:102B40004FF0010E4EEA4202ACF1200CDCF11E0EF9
:102B500054D943FA0CFE10EB0E0051F1FF31CCF1C9
:102B60001E0ED5D50EF1010E12FA0EFE404141EBBC
:102B7000010101EB445C5FEA5C5C10D910EBDE7094
:102B800001EB045138BFBEF1004FBDE8104018BF43
:102B9000704700280CBF491C20F00100704730D25C
:102BA0004FEAD42C11F5001124F400641BD0B1FAC3
:102BB00081F20B3AA41AA41ED2F12003914030FAFC
:102BC00003F31943904001EBCC71002C01EB04514D
:102BD000BDE81040A8BF704701F1C0414FF00000B0
:102BE00001F000417047B0FA80F310FA03F100D110
:102BF00010BDE41A173C4805C90AE4E701EB04518B
:102C000010BD491001EB0451BDE810404FEA3000FF
:102C100002E04FF0000170474A0008BF0042F8D0C0
:102C2000B2F5001F28BF704701F000414FF00000CF
:102C300070479EEA445F07D011EA5E0FBDE810407E
:102C400004BF002100207047BDE8104070B5FFF7B9
:102C5000CBFE00BF40DFF63E83F0004110467047D8
:102C60000000E0FF43004FEAD30C4FEA3C0C434026
:102C70001FBF40070CF1605113F0FE4F70471CF06E
:102C8000006F03D100200CF0004170470CF00043AE
:102C900043EA507010B540EACC0000F04FF800BF96
:102CA000000000924FEA0001FFF7ECBE4FF0004138
:102CB0004FF00000A1F500217047401058BFC0F14F
:102CC0004040491058BFC1F140418142EFF30080BC
:102CD0007047000050EA010C00F113801CF5000F52
:102CE00058BFBCF5000F01D48842704707D710F5D4
:102CF000000F58BF11F5000F15D488427047894264
:102D000070471CF5000F04D5BCF5000FF7D58142C4
:102D100070474FF0807C1CEB400F38BF1CEB410F1D
:102D200001D28142704710B500F008F892244900A2
:102D30004FF000504FF08051FFF7BFBF0EF1020E71
:102D40002EF0030E5EF8044B244204D44FEA4102F5
:102D5000B2F17F4F11D84FEA4003B3F17F4F0CD847
:102D60000ED14FEAD07CB2F17F4F0CEB4C0C0CF142
:102D7000020C08BF4CEBD17C04E04FF0080C01E0E2
:102D80004FEAD17C0CEB4C0324FA03F404F0070463
:102D9000B4F1040C06D20EEB840CBDE810404CF0EC
:102DA000010C6047DFE80CF0070802024FF000401A
:102DB000A0F5800010BD0846420018BFD2F1807215
:102DC00088BF00F0004010BDFF2141EAD050C0058F
:102DD0007047FDF7DABB000002400000000000A0D1
:102DE0000000000005400000000000C800000000D6
:102DF0000C4000000000409C000000001940000052
:102E00000020BCBE0000000034400000BFC91B8E83
:102E100000000004B5400000504BCFD06607E2CF61
:102E2000010000006C4100003E8251AADFEEA73491
:102E300001000000D9420000DCB5A0E23A301F9743
:102E4000FFFFFFFFB4450000FD25A0C8E9A3C14F67
:102E5000FFFFFFFFFF3F00000000008000000000B8
:102E6000FF3F00000000008000000000A82E0008C6
:102E700000000020400000005C010008E82E00086F
:102E80004000002098060000780100081C000000A7
:102E900043000000F8FFFFFF0C0000000E000000E0
:102EA0000F0000002E0000000000000001020304DB
:102EB00001020304060708090204060800000000D6
:102EC0000000000000000000000000000000000002
:102ED00000000000000000000000000000000000F2
:082EE0000000000000000000EA
:04000005080001DD11
:00000001FF
